:100000000C9434000C9451000C9451000C94510049
:100010000C9451000C9451000C9451000C9451001C
:100020000C9451000C9451000C9451000C9451000C
:100030000C9451000C944C010C9451000C94510000
:100040000C94D6010C9451000C9451000C94510066
:100050000C9451000C9451000C9451000C945100DC
:100060000C9451000C94510011241FBECFEFD8E026
:10007000DEBFCDBF11E0A0E0B1E0E4EDF4E002C0EE
:1000800005900D92A831B107D9F713E0A8E1B1E0CE
:1000900001C01D92A232B107E1F70E9459020C94EF
:1000A00068020C9400000895CF93DF93C82FD0E02E
:1000B00070E0DE0186E0AA0FBB1F8A95E1F7FD0123
:1000C000E60FF71FE75EFE4F9081A75EBE4FA60FBB
:1000D000B71F18968C9181119E5FFE01A6E0EE0F6E
:1000E000FF1FAA95E1F7E75EFE4FE60FF71F808935
:1000F00081119C5FFE0156E0EE0FFF1F5A95E1F75C
:10010000E75EFE4FE60FF71F808D8111985FFE01BD
:1001100046E0EE0FFF1F4A95E1F7E75EFE4FE60F60
:10012000F71F80A18111905FFE0136E0EE0FFF1FE7
:100130003A95E1F7E75EFE4FE60FF71F80A58111C4
:10014000905EFE0126E0EE0FFF1F2A95E1F7E75EC5
:10015000FE4FE60FF71F80A98111905C86E0CC0F5F
:10016000DD1F8A95E1F7C75EDE4FC60FD71F88AD4A
:1001700081119058892FDF91CF910895282F982FC2
:1001800080FF05C08FB7F8942D988FBF04C08FB73C
:10019000F8942D9A8FBF91FF05C08FB7F8942C98D3
:1001A0008FBF04C08FB7F8942C9A8FBF92FF05C001
:1001B0008FB7F8942B988FBF04C08FB7F8942B9A01
:1001C0008FBF93FF05C08FB7F8942A988FBF04C0E4
:1001D0008FB7F8942A9A8FBF94FF05C08FB7F89411
:1001E00029988FBF04C08FB7F894299A8FBF95FFC5
:1001F00005C08FB7F89428988FBF04C08FB7F894C4
:10020000289A8FBF96FF05C08FB7F8945F988FBF6D
:1002100004C08FB7F8945F9A8FBF27FF05C08FB7D0
:10022000F8945E988FBF08958FB7F8945E9A8FBF49
:100230000895409A0E94BE0040980895282F80FD9E
:1002400005C08FB7F8945D988FBF04C08FB7F8943E
:100250005D9A8FBF21FD05C08FB7F8945C988FBF62
:1002600004C08FB7F8945C9A8FBF22FD05C08FB78A
:10027000F8945B988FBF08958FB7F8945B9A8FBFFF
:1002800008951F93162F0E941E015A9A812F0E94D3
:10029000BE005A981F9108951F920F920FB60F92A9
:1002A00011241F932F933F934F935F936F937F93EB
:1002B0008F939F93AF93BF93EF93FF9380E00E9440
:1002C000190180911601803821F481E08093160194
:1002D00002C08091160110E080911601612F0E94EA
:1002E00054008093180180911601609118010E94BA
:1002F00041011F5F193081F7809116010E94190199
:10030000FF91EF91BF91AF919F918F917F916F91ED
:100310005F914F913F912F911F910F900FBE0F90C2
:100320001F901895A0E0B1E02D913D919FB7F894F2
:10033000F901F0708291832B80839FBF81E0A0310F
:10034000B80791F7A0E1B1E02D913D919FB7F894E6
:10035000F901F0708291832B80839FBF81E0A631E9
:10036000B80791F7529A389A3A98429A3B98439A2A
:10037000399841981092800010928100109282006A
:100380008091810088608093810088E290E0909362
:1003900089008093880080916F00816080936F0056
:1003A0008091810084608093810008951F920F9254
:1003B0000FB60F9211242F933F938F939F93AF9378
:1003C000BF9380911D0390911E03A0911F03B091D4
:1003D0002003309121030196A11DB11D232F2D5F14
:1003E0002D3720F02D570196A11DB11D209321031B
:1003F00080931D0390931E03A0931F03B0932003CB
:100400008091190390911A03A0911B03B0911C03D2
:100410000196A11DB11D8093190390931A03A09317
:100420001B03B0931C03BF91AF919F918F913F919C
:100430002F910F900FBE0F901F901895789484B550
:10044000826084BD84B5816084BD85B5826085BDD0
:1004500085B5816085BDEEE6F0E0808181608083B6
:10046000E1E8F0E010828081826080838081816099
:100470008083E0E8F0E0808181608083E1EBF0E060
:10048000808184608083E0EBF0E080818160808304
:10049000EAE7F0E0808184608083808182608083ED
:1004A0008081816080838081806880831092C10018
:1004B0000895CF93DF930E941E020E949201C0E034
:1004C000D0E00E9453002097E1F30E940000F9CF92
:0404D000F894FFCFCE
:1004D4002520251025082504250225012B802B40E5
:0804E4002B202B102B08010056
:00000001FF
