:100000000C9436000C945E000C945E000C945E0020
:100010000C945E000C945E000C945E000C945E00E8
:100020000C945E000C945E000C945E000C945E00D8
:100030000C945E000C9458010C945E000C945E00CD
:100040000C9495040C945E000C9427050C94750593
:100050000C945E000C945E000C945E000C945E00A8
:100060000C945E000C945E00C802E10611241FBED1
:10007000CFEFD8E0DEBFCDBF11E0A0E0B1E0E0E21D
:10008000F1E102C005900D92A83AB107D9F714E04A
:10009000A8EAB1E001C01D92AC3AB107E1F710E067
:1000A000CCE6D0E004C02297FE010E948A08C83640
:1000B000D107C9F70E9437070C948E080C940000F2
:1000C000CF93DF93C82FD0E070E0DE0186E0AA0F67
:1000D000BB1F8A95E1F7FD01E60FF71FEF54FE4FB6
:1000E0009081AF54BE4FA60FB71F18968C91811107
:1000F0009E5FFE01A6E0EE0FFF1FAA95E1F7EF5409
:10010000FE4FE60FF71F808981119C5FFE0156E0CC
:10011000EE0FFF1F5A95E1F7EF54FE4FE60FF71F62
:10012000808D8111985FFE0146E0EE0FFF1F4A951A
:10013000E1F7EF54FE4FE60FF71F80A18111905FAA
:10014000FE0136E0EE0FFF1F3A95E1F7EF54FE4F48
:10015000E60FF71F80A58111905EFE0126E0EE0FED
:10016000FF1F2A95E1F7EF54FE4FE60FF71F80A916
:100170008111905C86E0CC0FDD1F8A95E1F7CF54AA
:10018000DE4FC60FD71F88AD81119058892FDF91A0
:10019000CF910895282F982F80FF05C08FB7F8942E
:1001A0002D988FBF04C08FB7F8942D9A8FBF91FF01
:1001B00005C08FB7F8942C988FBF04C08FB7F89400
:1001C0002C9A8FBF92FF05C08FB7F8942B988FBFE2
:1001D00004C08FB7F8942B9A8FBF93FF05C08FB7D9
:1001E000F8942A988FBF04C08FB7F8942A9A8FBFCB
:1001F00094FF05C08FB7F89429988FBF04C08FB7BC
:10020000F894299A8FBF95FF05C08FB7F894289866
:100210008FBF04C08FB7F894289A8FBF96FF05C090
:100220008FB7F8945F988FBF04C08FB7F8945F9A28
:100230008FBF27FF05C08FB7F8945E988FBF0895D2
:100240008FB7F8945E9A8FBF0895409A0E94CA00B3
:1002500040980895282F80FD05C08FB7F8945D98C9
:100260008FBF04C08FB7F8945D9A8FBF21FD05C082
:100270008FB7F8945C988FBF04C08FB7F8945C9ADE
:100280008FBF22FD05C08FB7F8945B988FBF08958C
:100290008FB7F8945B9A8FBF08951F93162F0E9413
:1002A0002A015A9A812F0E94CA005A981F910895D4
:1002B0001F920F920FB60F9211241F932F933F930B
:1002C0004F935F936F937F938F939F93AF93BF935E
:1002D000EF93FF9380E00E94250180919601803882
:1002E00021F481E08093960102C08091960110E094
:1002F00080919601612F0E9460008093B0018091EF
:1003000096016091B0010E944D011F5F193081F785
:10031000809196010E942501FF91EF91BF91AF91CD
:100320009F918F917F916F915F914F913F912F910D
:100330001F910F900FBE0F901F901895EF92FF9294
:100340000F931F930E94DD046115710581059105CE
:1003500041F40E94DD04623071058105910508F4C5
:100360007EC081EB93E00E94FE029B01AC01609392
:10037000AC017093AD018093AE019093AF01809179
:10038000A8019091A901A091AA01B091AB012817F1
:1003900039074A075B0740F42093A8013093A9016D
:1003A0004093AA015093AB018091A8019091A901BB
:1003B000A091AA01B091AB0179018A01E81AF90A6A
:1003C0000A0B1B0BD801C7018A3F9105A105B10596
:1003D00008F445C02093A8013093A9014093AA01D5
:1003E0005093AB0181EB93E044EF51E060E070E0AB
:1003F0000E94810381EB93E061E00E94E003882387
:1004000011F181EB93E061E00E940E038091F30310
:100410009091F40360E071E00E9431080091F303D1
:100420001091F4030E94DD04AB01BC01C8012AE075
:1004300030E00E94100881EB93E00E94F40281EB0F
:1004400093E00E94AB0281EB93E042E050E060E079
:1004500070E00E94C60381EB93E00E9401031F91AC
:100460000F91FF90EF90089581EB93E048EB5BE0F4
:1004700060E070E00E94CA0381EB93E06AE874E0F8
:1004800020E032EC41E050E00E94E90281EB93E091
:1004900061E00E94E0038823A1F08091F303909132
:1004A000F40362E071E00E94310881EB93E04AE0DE
:1004B00050E060E070E00E94C60381EB93E00E9490
:1004C000AB0281EB93E060E041E00E947904A0E898
:1004D000B1E02D913D919FB7F894F901F0708291B0
:1004E000832B80839FBF81E0A039B80791F7A0E9F3
:1004F000B1E02D913D919FB7F894F901F070829190
:10050000832B80839FBF81E0A639B80791F7529A69
:10051000389A3A98429A3B98439A3998419810925F
:10052000800010928100109282008091810088608A
:100530008093810088E290E0909389008093880006
:1005400080916F00816080936F0080918100846052
:100550008093810008950895FC01EE5BFF4FA08118
:10056000B181ED91FC9111970680F781E02DCD01CD
:1005700009950895FC01EE5BFF4FA081B181ED91DB
:10058000FC9111970480F581E02DCD010995089526
:100590001092B7031092B8031092B9031092BA03E5
:1005A0001092BB031092BC031092BD031092BE03C5
:1005B0001092BF031092C0031092C1031092C203A5
:1005C0001092C3031092C4031092C5031092C60385
:1005D0000895FC01EE5BFF4F71836083CB01BA018C
:1005E000A9010E94B0050895FC01EE5BFF4F8081D8
:1005F00091816CE571E00E94340808950E94DD0449
:1006000008950F931F938C010E94DD04F801668307
:100610007783808791871F910F9108958F929F9282
:10062000AF92BF92CF92DF92EF92FF920F931F9300
:100630005C01962E0E94DD046B017C0185010E5B3E
:100640001F4FF8018081918163E671E00E943108BB
:10065000F80180819181692D4AE050E00E941F08D5
:10066000F801808191816AE671E00E943108F80109
:1006700080819181B701A6012AE030E00E94100834
:100680004EE6842E41E0942EF80180819181B401E0
:100690000E943108F50186819781A085B185C81A2D
:1006A000D90AEA0AFB0AF80180819181B701A60103
:1006B0002AE030E00E941008F80180819181B401A5
:1006C0000E943108F50146815781608571858285D8
:1006D0009385A485B585481B590B6A0B7B0BF801E4
:1006E000808191812AE030E00E9410081F910F91D3
:1006F000FF90EF90DF90CF90BF90AF909F908F9042
:1007000008950F931F938C01FC0146875787608BD8
:10071000718B128A138A148A158A86819781A08523
:10072000B18582879387A487B5870E94DD04F8018D
:1007300066837783808791871F910F910895AF9289
:10074000BF92CF92DF92EF92FF920F931F937A01A5
:100750008B010E94DD045B016C01E60EF71E081F91
:10076000191F0E94DD046A157B058C059D0528F084
:10077000E616F70608071907A0F71F910F91FF90DB
:10078000EF90DF90CF90BF90AF90089521E00E944E
:100790009F030895FC01EC5BFF4F108211821282CF
:1007A0001382E454F04012821382148215824115A0
:1007B00051056105710519F0CF010E94C603089526
:1007C0000F931F93CF93DF93EC016623E9F40E940C
:1007D000DD048B019C018A819B81AC81BD81081B5A
:1007E000190B2A0B3B0B013211052105310560F471
:1007F00041E250E060E070E0401B510B620B730B74
:10080000CE0121E00E949F030E94DD046A837B8366
:100810008C839D8381E0DF91CF911F910F9108958B
:10082000DF92EF92FF920F931F938C01D62E61E01F
:100830000E94E00352E4E52EF12CE00EF11EF701D8
:100840008081918160E771E00E943108F701808129
:1008500091816D2D4AE050E00E941F08F7018081D0
:10086000918167E771E00E943108C80142E350E0DE
:1008700060E070E00E94C6031F910F91FF90EF901F
:10088000DF9008950F931F93CF93DF93EC01062F12
:100890008E89882329F1CE010E94BA028823D1F4DF
:1008A00021C0CE010E94AC02182F8836C9F08936CB
:1008B00028F4883569F0833669F405C0813781F002
:1008C000863741F410C0CE01602F0E9410040BC087
:1008D0001E8A06C0CE010E94BA02882311F702C008
:1008E00013E601C015E6812FDF91CF911F910F9183
:1008F00008951F93CF93DF93EC01142F662381F0AB
:1009000081E08E8B07C0CE0141E050E060E070E0F6
:100910000E94C603CE0160E00E944204833699F72C
:100920001E8BDF91CF911F9108951F920F920FB6EA
:100930000F9211242F933F938F939F93AF93BF9365
:100940008091FD039091FE03A091FF03B0910004FC
:10095000309101040196A11DB11D232F2D5F2D376C
:1009600020F02D570196A11DB11D20930104809305
:10097000FD039093FE03A093FF03B09300048091C6
:10098000F9039091FA03A091FB03B091FC03019647
:10099000A11DB11D8093F9039093FA03A093FB036B
:1009A000B093FC03BF91AF919F918F913F912F9195
:1009B0000F900FBE0F901F9018958FB7F89420914D
:1009C000FD033091FE034091FF03509100048FBF5F
:1009D000B901CA010895789484B5826084BD84B554
:1009E000816084BD85B5826085BD85B5816085BD2A
:1009F000EEE6F0E0808181608083E1E8F0E0108243
:100A0000808182608083808181608083E0E8F0E083
:100A1000808181608083E1EBF0E08081846080836D
:100A2000E0EBF0E0808181608083EAE7F0E08081A4
:100A30008460808380818260808380818160808304
:100A40008081806880831092C100089508951F926C
:100A50000F920FB60F9211242F933F934F938F93C2
:100A60009F93EF93FF938091C00082FD1DC0409142
:100A7000C60020914204309143042F5F3F4F2F73F3
:100A8000307080914404909145042817390771F023
:100A9000E0914204F0914304EE5FFB4F40833093BA
:100AA00043042093420402C08091C600FF91EF915D
:100AB0009F918F914F913F912F910F900FBE0F906B
:100AC0001F901895E0919604F0919704E05CFF4F19
:100AD0008191919120813181821B930B8F73907052
:100AE000892B11F00E94260508951F920F920FB6D0
:100AF0000F9211242F933F938F939F93EF93FF9324
:100B00002091860430918704809188049091890413
:100B10002817390731F48091C1008F7D8093C1007F
:100B200014C0E0918804F0918904EA5BFB4F2081B6
:100B3000809188049091890401968F7390709093AE
:100B40008904809388042093C600FF91EF919F91C0
:100B50008F913F912F910F900FBE0F901F9018957E
:100B6000AF92BF92DF92EF92FF920F931F93CF93BA
:100B7000DF93EC017A018B01DD24403081EE5807D0
:100B800080E0680780E0780711F0DD24D39491E0DD
:100B9000A92EB12CEC89FD89DD2069F0C50108A0E2
:100BA00002C0880F991F0A94E2F7808360E079E021
:100BB0008DE390E005C0108260E874E88EE190E07B
:100BC000A80197010E9466082150304040405040E3
:100BD000569547953795279580E12030380720F0C6
:100BE000DD2011F0DD24D6CFE889F9893083EA8948
:100BF000FB89208319A2EE89FF89408121E030E042
:100C0000C9010C8C02C0880F991F0A94E2F7482B87
:100C10004083EE89FF894081C9010D8C02C0880F95
:100C2000991F0A94E2F7482B4083EE89FF8940819F
:100C3000C9010E8C02C0880F991F0A94E2F7482B55
:100C40004083EE89FF8980810F8C02C0220F331F01
:100C50000A94E2F7209528232083DF91CF911F91FA
:100C60000F91FF90EF90DF90BF90AF900895DC015F
:100C70001C96ED91FC911D97E05CFF4F2191319105
:100C800080819181281B390B2F733070C901089521
:100C9000DC011C96ED91FC911D97E05CFF4F2081DB
:100CA0003181E054F040DF01AE5BBF4F8D919C91EC
:100CB00011972817390719F42FEF3FEF07C08D91CF
:100CC0009C91E80FF91F8081282F30E0C901089519
:100CD000DC011C96ED91FC911D97E05CFF4F20819B
:100CE0003181E054F040DF01AE5BBF4F8D919C91AC
:100CF00011972817390719F42FEF3FEF10C08D9186
:100D00009C911197E80FF91F20818D919C9111976B
:100D100001968F73907011969C938E9330E0C90169
:100D20000895DC0191968C919197882339F054961F
:100D3000ED91FC915597808186FFF9CF91961C9299
:100D40000895CF93DF93EC01EE85FF85E05CFF4FC4
:100D500020813181E054F0402F5F3F4F2F7330707E
:100D6000DF01AE5BBF4F8D919C911197281739071A
:100D7000D1F3E05CFF4F80819181E054F040E80FB7
:100D8000F91F6083EE85FF85E05CFF4F3183208390
:100D9000EE89FF89208181E090E00F8C02C0880FEE
:100DA000991F0A94E2F7282B208381E089A3EC891C
:100DB000FD8980818064808381E090E0DF91CF9124
:100DC000089510928D0410928C0488EE93E0A0E0B8
:100DD000B0E080938E0490938F04A0939004B0931E
:100DE00091048BE991E090938B0480938A0482E0D4
:100DF00094E0909397048093960486E494E0909313
:100E000099048093980485EC90E090939B048093E0
:100E10009A0484EC90E090939D0480939C0480EC71
:100E200090E090939F0480939E0481EC90E09093D7
:100E3000A1048093A00482EC90E09093A30480939B
:100E4000A20486EC90E09093A5048093A40484E02F
:100E50008093A60483E08093A70487E08093A8048E
:100E600085E08093A90481E08093AA040895CF933C
:100E7000DF930E94EB040E943402C2E6D5E00E9498
:100E80009E012097E1F30E946205F9CFCF92DF9295
:100E9000EF92FF920F931F93CF93DF937C016B012F
:100EA0008A01C0E0D0E00FC0D6016D916D01D7017D
:100EB000ED91FC910190F081E02DC7010995C80FDB
:100EC000D91F015010400115110571F7CE01DF91B6
:100ED000CF911F910F91FF90EF90DF90CF900895E9
:100EE000EF92FF920F931F938C01DC01ED91FC9127
:100EF0000190F081E02D6DE009957C01D801ED9124
:100F0000FC910190F081E02DC8016AE009959C01F7
:100F10002E0D3F1DC9011F910F91FF90EF90089575
:100F2000CF93DF93EC016115710519F420E030E0F7
:100F30000FC0DB010D900020E9F71197A61BB70B3E
:100F4000E881F9810280F381E02DAD0109959C01D2
:100F5000C901DF91CF9108954F925F927F928F9256
:100F60009F92AF92BF92CF92DF92EF92FF920F9338
:100F70001F93DF93CF93CDB7DEB7A1970FB6F89449
:100F8000DEBF0FBECDBF2C01742ECB01223008F482
:100F90002AE019A231E2C32ED12CCC0EDD1E822E06
:100FA0009924AA24BB24672D752FA50194010E94C2
:100FB000660879018A01C801B701A50194010E9460
:100FC0004708472D461B0894C108D1084A3014F43D
:100FD000405D01C0495CF6014083E114F104010564
:100FE000110521F07E2C5F2DC801DDCFC201B601B5
:100FF0000E949007A1960FB6F894DEBF0FBECDBF3A
:10100000CF91DF911F910F91FF90EF90DF90CF90E4
:10101000BF90AF909F908F907F905F904F9008957A
:10102000DC012115310541F4ED91FC910190F08135
:10103000E02D642F099508950E94AC070895EF9262
:10104000FF920F931F939A01E62EFF2400E010E019
:10105000B801A7010E9410081F910F91FF90EF9017
:1010600008950E9490070895EF92FF920F931F93A7
:101070007C010E9490078C01C7010E947007080F35
:10108000191FC8011F910F91FF90EF900895629F63
:10109000D001739FF001829FE00DF11D649FE00D70
:1010A000F11D929FF00D839FF00D749FF00D659FD1
:1010B000F00D9927729FB00DE11DF91F639FB00DD0
:1010C000E11DF91FBD01CF0111240895A1E21A2EDF
:1010D000AA1BBB1BFD010DC0AA1FBB1FEE1FFF1FDC
:1010E000A217B307E407F50720F0A21BB30BE40B2C
:1010F000F50B661F771F881F991F1A9469F7609573
:101100007095809590959B01AC01BD01CF0108952C
:10111000EE0FFF1F0590F491E02D0994F894FFCF96
:101120007C00564D4450565F317C315F564D4450E3
:10113000560D0A004572726F723A20417474656DE3
:10114000707420746F20736574206120726561640F
:101150002D6F6E6C79207661726961626C65206FAB
:101160007220646174612074797065206E6F7420E0
:10117000737570706F727465640D0A005F564D442C
:10118000504500564D4450455F003A323A003A000F
:10119000564D4450435F005F564D4450430D0A0086
:1011A0002520251025082504250225012B802B400C
:1011B0002B202B102B080100000000A1064607374A
:0811C0000668064806910600CE
:00000001FF
